{
  "_format": "hh-sol-artifact-1",
  "contractName": "TwoFactorFactory",
  "sourceName": "contracts/TwoFactorFactory.sol",
  "abi": [
    {
      "inputs": [
        {
          "internalType": "address",
          "name": "_ghoTransferContract",
          "type": "address"
        }
      ],
      "stateMutability": "nonpayable",
      "type": "constructor"
    },
    {
      "anonymous": false,
      "inputs": [
        {
          "indexed": true,
          "internalType": "address",
          "name": "twoFactorAddress",
          "type": "address"
        },
        {
          "indexed": true,
          "internalType": "address",
          "name": "wallet",
          "type": "address"
        }
      ],
      "name": "NewTwoFactor",
      "type": "event"
    },
    {
      "inputs": [
        {
          "internalType": "address",
          "name": "_owner1",
          "type": "address"
        },
        {
          "internalType": "address",
          "name": "_owner2",
          "type": "address"
        }
      ],
      "name": "createTwoFactor",
      "outputs": [],
      "stateMutability": "nonpayable",
      "type": "function"
    },
    {
      "inputs": [
        {
          "internalType": "uint256",
          "name": "",
          "type": "uint256"
        }
      ],
      "name": "deployedTwoFactors",
      "outputs": [
        {
          "internalType": "address",
          "name": "",
          "type": "address"
        }
      ],
      "stateMutability": "view",
      "type": "function"
    },
    {
      "inputs": [],
      "name": "getDeployedTwoFactors",
      "outputs": [
        {
          "internalType": "address[]",
          "name": "",
          "type": "address[]"
        }
      ],
      "stateMutability": "view",
      "type": "function"
    },
    {
      "inputs": [],
      "name": "getTwoFactorForWallet",
      "outputs": [
        {
          "internalType": "address",
          "name": "",
          "type": "address"
        }
      ],
      "stateMutability": "view",
      "type": "function"
    },
    {
      "inputs": [],
      "name": "ghoTransferContract",
      "outputs": [
        {
          "internalType": "address",
          "name": "",
          "type": "address"
        }
      ],
      "stateMutability": "view",
      "type": "function"
    },
    {
      "inputs": [
        {
          "internalType": "address",
          "name": "",
          "type": "address"
        }
      ],
      "name": "walletToTwoFactor",
      "outputs": [
        {
          "internalType": "address",
          "name": "",
          "type": "address"
        }
      ],
      "stateMutability": "view",
      "type": "function"
    }
  ],
  "bytecode": "0x608060405234801561001057600080fd5b5060405161106138038061106183398101604081905261002f91610054565b600280546001600160a01b0319166001600160a01b0392909216919091179055610084565b60006020828403121561006657600080fd5b81516001600160a01b038116811461007d57600080fd5b9392505050565b610fce806100936000396000f3fe608060405234801561001057600080fd5b50600436106100615760003560e01c806284b6fe1461006657806320e52cdd146100965780633c2daf9c146100ab5780636f91c09a146100d4578063902bd26a146100e7578063bf19352714610105575b600080fd5b600254610079906001600160a01b031681565b6040516001600160a01b0390911681526020015b60405180910390f35b6100a96100a43660046102d3565b61011a565b005b6100796100b9366004610306565b6001602052600090815260409020546001600160a01b031681565b6100796100e2366004610328565b61021e565b336000908152600160205260409020546001600160a01b0316610079565b61010d610248565b60405161008d9190610341565b600254604051600091849184916001600160a01b03169061013a906102aa565b6001600160a01b03938416815291831660208301529091166040820152606001604051809103906000f080158015610176573d6000803e3d6000fd5b5060008054600181810183557f290decd9548b62a8d60345a988386fc84ba6bc95484008f6362f93160ef3e56390910180546001600160a01b038086166001600160a01b0319928316811790935588811685526020939093526040808520805483168417905592871684528284208054909116821790559051929350339290917f2ecca1fb41407b2a8da8a759866421d5b498d571f7368ebc1216b07440218e4e91a3505050565b6000818154811061022e57600080fd5b6000918252602090912001546001600160a01b0316905081565b606060008054806020026020016040519081016040528092919081815260200182805480156102a057602002820191906000526020600020905b81546001600160a01b03168152600190910190602001808311610282575b5050505050905090565b610c0a8061038f83390190565b80356001600160a01b03811681146102ce57600080fd5b919050565b600080604083850312156102e657600080fd5b6102ef836102b7565b91506102fd602084016102b7565b90509250929050565b60006020828403121561031857600080fd5b610321826102b7565b9392505050565b60006020828403121561033a57600080fd5b5035919050565b6020808252825182820181905260009190848201906040850190845b818110156103825783516001600160a01b03168352928401929184019160010161035d565b5090969550505050505056fe6080604052604051610c0a380380610c0a83398101604081905261002291610080565b600180546001600160a01b039485166001600160a01b0319918216179091556002805493851693821693909317909255600080549190931691161790556100c3565b80516001600160a01b038116811461007b57600080fd5b919050565b60008060006060848603121561009557600080fd5b61009e84610064565b92506100ac60208501610064565b91506100ba60408501610064565b90509250925092565b610b38806100d26000396000f3fe60806040526004361061008a5760003560e01c80637368891411610059578063736889141461012757806383920e90146101475780639ace38c214610169578063af640d0f146101c3578063c3fa3acf146101d957600080fd5b806312065fe014610096578063242232d1146100b8578063512b304a146100da57806352709725146100ef57600080fd5b3661009157005b600080fd5b3480156100a257600080fd5b50475b6040519081526020015b60405180910390f35b3480156100c457600080fd5b506100d86100d33660046109b5565b6101f9565b005b3480156100e657600080fd5b506100a56102bd565b3480156100fb57600080fd5b5060025461010f906001600160a01b031681565b6040516001600160a01b0390911681526020016100af565b34801561013357600080fd5b5060015461010f906001600160a01b031681565b34801561015357600080fd5b5061015c61032f565b6040516100af91906109ce565b34801561017557600080fd5b506101896101843660046109b5565b6103d6565b604080516001600160a01b03909616865260208601949094529115159284019290925290151560608301521515608082015260a0016100af565b3480156101cf57600080fd5b506100a560035481565b3480156101e557600080fd5b506100a56101f4366004610a4b565b610429565b6001546001600160a01b031633148061021c57506002546001600160a01b031633145b61022557600080fd5b6001546001600160a01b031633036102735760016004828154811061024c5761024c610a83565b60009182526020909120600390910201600201805460ff19169115159190911790556102b1565b60016004828154811061028857610288610a83565b906000526020600020906003020160020160016101000a81548160ff0219169083151502179055505b6102ba816105f1565b50565b600080546040516370a0823160e01b81523060048201526001600160a01b03909116906370a0823190602401602060405180830381865afa158015610306573d6000803e3d6000fd5b505050506040513d601f19601f8201168201806040525081019061032a9190610a99565b905090565b60606004805480602002602001604051908101604052809291908181526020016000905b828210156103cd5760008481526020908190206040805160a0810182526003860290920180546001600160a01b031683526001808201548486015260029091015460ff8082161515938501939093526101008104831615156060850152620100009004909116151560808301529083529092019101610353565b50505050905090565b600481815481106103e657600080fd5b60009182526020909120600390910201805460018201546002909201546001600160a01b03909116925060ff808216916101008104821691620100009091041685565b6001546000906001600160a01b031633148061044f57506002546001600160a01b031633145b61045857600080fd5b6040805160a08101825260009181018290526060810182905260808101919091526001600160a01b038481168252602082018490526001541633036104a357600160408201526104ab565b600160608201525b6004805460018101825560009190915281517f8a35acfbc15ff81a39ae7d344fd709f28e8600b4aa8c65c6b64bfe7fe36bd19b600390920291820180546001600160a01b0319166001600160a01b039283161790556020808401517f8a35acfbc15ff81a39ae7d344fd709f28e8600b4aa8c65c6b64bfe7fe36bd19c8401556040808501517f8a35acfbc15ff81a39ae7d344fd709f28e8600b4aa8c65c6b64bfe7fe36bd19d9094018054606080880151608089015161ffff1990931697151561ff00191697909717610100971515979097029690961762ff00001916620100009115159190910217905580519288168352339183019190915281018590527f2e0cb4c0be5b0ff40edfd5704c8621d3b0745a1fa1c67aa45c617a8098771f37910160405180910390a1600380549060006105e583610ab2565b90915550949350505050565b6004818154811061060457610604610a83565b600091825260209091206002600390920201015460ff16801561065557506004818154811061063557610635610a83565b906000526020600020906003020160020160019054906101000a900460ff165b6106a65760405162461bcd60e51b815260206004820152601860248201527f4d75737420626520617070726f76656420627920626f7468000000000000000060448201526064015b60405180910390fd5b600481815481106106b9576106b9610a83565b600091825260209091206003909102016002015462010000900460ff1615156001036107275760405162461bcd60e51b815260206004820152601a60248201527f49742077617320616c7265616479207472616e73666572726564000000000000604482015260640161069d565b6004818154811061073a5761073a610a83565b600091825260208220600391909102016001015490546040516370a0823160e01b81523060048201526001600160a01b03909116906370a0823190602401602060405180830381865afa158015610795573d6000803e3d6000fd5b505050506040513d601f19601f820116820180604052508101906107b99190610a99565b10156107fe5760405162461bcd60e51b8152602060048201526014602482015273496e73756666696369656e742062616c616e636560601b604482015260640161069d565b600054600480546001600160a01b039092169163a9059cbb91908490811061082857610828610a83565b6000918252602090912060039091020154600480546001600160a01b03909216918590811061085957610859610a83565b60009182526020909120600160039092020101546040516001600160e01b031960e085901b1681526001600160a01b03909216600483015260248201526044016020604051808303816000875af11580156108b8573d6000803e3d6000fd5b505050506040513d601f19601f820116820180604052508101906108dc9190610ad9565b506001600482815481106108f2576108f2610a83565b906000526020600020906003020160020160026101000a81548160ff0219169083151502179055507fc0eb7a138362772da4d1d9adfe7f13a30f35b960c48ae439f3afcd4d08e814526004828154811061094e5761094e610a83565b6000918252602090912060039091020154600480546001600160a01b03909216918490811061097f5761097f610a83565b600091825260209182902060016003909202010154604080516001600160a01b039094168452918301520160405180910390a150565b6000602082840312156109c757600080fd5b5035919050565b602080825282518282018190526000919060409081850190868401855b82811015610a3e57815180516001600160a01b0316855286810151878601528581015115158686015260608082015115159086015260809081015115159085015260a090930192908501906001016109eb565b5091979650505050505050565b60008060408385031215610a5e57600080fd5b82356001600160a01b0381168114610a7557600080fd5b946020939093013593505050565b634e487b7160e01b600052603260045260246000fd5b600060208284031215610aab57600080fd5b5051919050565b600060018201610ad257634e487b7160e01b600052601160045260246000fd5b5060010190565b600060208284031215610aeb57600080fd5b81518015158114610afb57600080fd5b939250505056fea2646970667358221220d2d03cef58da31dca38ba375b92dfadaa2f83eb04d16f0a562cd1ded4e45138a64736f6c63430008160033a26469706673582212202090cd62d192379baaabc7b474118f179bd01450058ed24a4fcdc4bbb0e53d4464736f6c63430008160033",
  "linkReferences": {},
  "deployedLinkReferences": {}
}